:1000000058C0000073C0000071C000006FC0000045
:100010006DC000006BC0000069C0000067C0000038
:1000200065C0000063C0000061C000005FC0000048
:100030005DC00000C9C0000059C0000057C00000EA
:1000400055C0000053C0000051C000004FC0000068
:100050004DC000004BC0000049C0000047C0000078
:1000600045C0000043C0000041C000003FC0000088
:100070003DC000003BC0000039C0000037C0000098
:1000800035C0000033C0000031C000004501490107
:100090004D01570161016B0178017E0182018601EA
:1000A00097019C019F01A201A501C501AD01B3010A
:1000B000BB0111241FBECFEFD0E4DEBFCDBF11E0E6
:1000C000A0E0B1E0E0EDF3E000E00BBF02C007907C
:1000D0000D92AC30B107D9F721E0ACE0B1E001C03E
:1000E0001D92A531B207E1F751D170C189CF181621
:1000F00019065CF00895000021503109E1F74F5FC7
:100100005F4F8417950719F4089540E050E027E009
:1001100033E0F1CF2B988BB92C9A00002C9882E019
:1001200090E0E5CF089581E0F5CF0895813118F48E
:100130008158F0CF08958155EDCF08952B9A8BB952
:100140002C9A00002C9881E090E0D1CF08950F9375
:100150001F93CF93DF93182FEB01E5DF888188236E
:1001600051F001E0010F812FE1DF8991E7DF102FCE
:1001700088818111F6CFDF91CF911F910F91089562
:100180008BE0809381008DE790E0909389008093CD
:10019000880082E080936F001092850010928400A6
:1001A0008091000190910101A0910201B0910301A1
:1001B00080930F0190931001A0931101B09312014D
:1001C0008FB780688FBF08951F920F920FB60F925E
:1001D00011248F939F93AF93BF9380910F019091C0
:1001E0001001A0911101B09112010197A109B1096B
:1001F00080930F0190931001A0931101B09312010D
:10020000892B8A2B8B2B99F481E0809313018091A9
:10021000000190910101A0910201B091030180932E
:100220000F0190931001A0931101B0931201BF919F
:10023000AF919F918F910F900FBE0F901F901895C7
:100240006093000170930101809302019093030178
:1002500060930F017093100180931101909312012C
:10026000089580B191E0282F217080FD90E0909357
:100270000E01E09114018E2F90E08A30910508F074
:100280004CC0FC01EA5BFF4F98C081E080931401F1
:100290004EC082E0809314014FC0211104C088E059
:1002A0008093140160C083E08093140148C0211141
:1002B00004C087E08093140150C084E0809314014F
:1002C00041C0211104C088E0809314014CC082E039
:1002D0008093140131C080910D01893019F480930D
:1002E000140149C0222389F186E080931401089506
:1002F00021114BC082E0809314011EC085E08093E1
:10030000140123C085E0809314011FC080910C016B
:10031000833088F11092140108958E2F90E0FC0133
:100320003197E930F10588F5E05BFF4F46C015B81D
:1003300085E080930D01089581E085B9089582E0FC
:1003400085B9089584E085B90895EDDE81E0EEDE9B
:1003500080910D01805DF2CE089580910D018F5F37
:1003600080930D01089580910D01882371F08150D3
:1003700080930D010895D7DE64E071E081E0E7DE4F
:1003800080910C018F5F80930C01089510921401ED
:1003900011B88FEF82B984B915B884B915B86CE279
:1003A00071E080E090E04CDFEBDE5BDF80911301D9
:1003B0008823E1F310921301F8CFEE0FFF1F002402
:1003C000001C0BBE0790F691E02D0994F894FFCF26
:0C03D00001000000594F5520574F4E000F
:00000001FF
