:100000004DC0000068C0000066C0000064C0000071
:1000100062C0000060C000005EC000005CC0000064
:100020005AC0000058C0000056C0000054C0000074
:1000300052C00000B4C000004EC000004CC0000020
:100040004AC0000048C0000046C0000044C0000094
:1000500042C0000040C000003EC000003CC00000A4
:100060003AC0000038C0000036C0000034C00000B4
:1000700032C0000030C000002EC000002CC00000C4
:100080002AC0000028C0000026C000002F01330154
:100090003701400150014C0157015E0111241FBE80
:1000A000CFEFD0E4DEBFCDBF11E0A0E0B1E0EEECD9
:1000B000F3E000E00BBF02C007900D92A430B1073F
:1000C000D9F721E0A4E0B1E001C01D92AE30B20743
:1000D000E1F75ED17AC194CF181619065CF0089545
:1000E000000021503109E1F74F5F5F4F84179507FA
:1000F00019F4089540E050E027E033E0F1CF2B9869
:100100008BB92C9A00002C9882E090E0E5CF0895FE
:1001100081E0F5CF0895813118F48158F0CF08952A
:100120008155EDCF089584E690E0D6DF88E3E7DFE0
:1001300086E0E5DF8FE0E3DF81E0E1DF8AE090E069
:10014000CBCF08952B9A8BB92C9A00002C9881E084
:1001500090E0C2CF08958BE0809381008DE790E01E
:10016000909389008093880082E080936F001092C2
:100170008500109284008091000190910101A0916E
:100180000201B09103018093050190930601A093B1
:100190000701B09308018FB780688FBF08951F9241
:1001A0000F920FB60F9211248F939F93AF93BF932B
:1001B0008091050190910601A0910701B09108017D
:1001C0000197A109B1098093050190930601A093BD
:1001D0000701B0930801892B8A2B8B2B99F481E0BE
:1001E000809309018091000190910101A091020189
:1001F000B09103018093050190930601A09307013C
:10020000B0930801BF91AF919F918F910F900FBE56
:100210000F901F90189560930001709301018093D7
:10022000020190930301609305017093060180938E
:10023000070190930801089580B1817080930C01AB
:1002400090B1927090930B0120910D01422F50E0DC
:1002500048305105D0F5FA01EA5BFF4FADC081E0AF
:1002600080930D0143C082E080930D0189C08130ED
:1002700009F086C0911184C083E080930D013BC0DA
:10028000813031F4809104018F5F8093040133C089
:1002900084E080930D016FC086E080930D016EC0F5
:1002A000813009F468C082E080930D0169C081301B
:1002B00009F464C082E080930D0162C0813009F4CA
:1002C00055C082E080930D015BC0243009F453C017
:1002D00028F4213059F0233071F052C0263009F44F
:1002E0004DC038F1273009F441C04AC010920A01CC
:1002F0001092040145C090910A01993008F040C065
:10030000309104018DEC389F812D112486958695BE
:100310008695880F282F220F220F820F381719F089
:10032000313071F502C0332359F19F5F90930A0178
:1003300027C090910A01992319F1309104018DECA5
:10034000389F812D1124869586958695880F282FB4
:10035000220F220F820F381719F0313089F402C0B2
:10036000332371F0915090930A010AC010920A0150
:100370001092040105C01092040102C01092040101
:10038000C7DE81E0C8DE80910A01805DDBCE089582
:1003900010920D0111B88FEF82B984B915B88AB9DE
:1003A0001BB864E670E080E090E035DFD4DEBBDEB1
:1003B00043DF10920901FCCFEE0FFF1F0024001C49
:0E03C0000BBE0790F691E02D0994F894FFCF44
:0403CE00010000002A
:00000001FF
